{
  "_format": "hh-sol-artifact-1",
  "contractName": "Prices",
  "sourceName": "contracts/Libraries/Prices.sol",
  "abi": [
    {
      "inputs": [
        {
          "internalType": "address",
          "name": "underlying",
          "type": "address"
        }
      ],
      "name": "getPrice",
      "outputs": [
        {
          "internalType": "uint256",
          "name": "",
          "type": "uint256"
        }
      ],
      "stateMutability": "view",
      "type": "function"
    }
  ],
  "bytecode": "0x608060405234801561001057600080fd5b50610158806100206000396000f3fe608060405234801561001057600080fd5b506004361061002b5760003560e01c806341976e0914610030575b600080fd5b61004361003e3660046100ea565b610055565b60405190815260200160405180910390f35b6040516341976e0960e01b815273ffffffffffffffffffffffffffffffffffffffff8216600482015260009081907359828fdf7ee634aaad3f58b19fdba3b03e2d9d80906341976e09906024016040805180830381865afa1580156100be573d6000803e3d6000fd5b505050506040513d601f19601f820116820180604052508101906100e29190610127565b509392505050565b6000602082840312156100fc57600080fd5b813573ffffffffffffffffffffffffffffffffffffffff8116811461012057600080fd5b9392505050565b6000806040838503121561013a57600080fd5b50508051602090910151909290915056fea164736f6c6343000811000a",
  "linkReferences": {},
  "deployedLinkReferences": {}
}