{
  "_format": "hh-sol-artifact-1",
  "contractName": "Positions",
  "sourceName": "contracts/Libraries/Positions.sol",
  "abi": [
    {
      "inputs": [
        {
          "internalType": "address",
          "name": "underlying",
          "type": "address"
        },
        {
          "internalType": "address",
          "name": "collateral",
          "type": "address"
        },
        {
          "internalType": "uint24",
          "name": "fee",
          "type": "uint24"
        }
      ],
      "name": "closePosition",
      "outputs": [],
      "stateMutability": "nonpayable",
      "type": "function"
    }
  ],
  "bytecode": "0x608060405234801561001057600080fd5b5061029a806100206000396000f3fe608060405234801561001057600080fd5b506004361061002b5760003560e01c8063d67f33fc14610030575b600080fd5b61004361003e3660046101a8565b610045565b005b61007e6040518060c001604052806000815260200160008152602001600081526020016000815260200160008152602001606081525090565b60008082526020808301829052604080840183905260608085018490526080850193909352516bffffffffffffffffffffffff1987841b8116928201929092527fffffff000000000000000000000000000000000000000000000000000000000060e886901b1660348201529185901b166037820152604b0160408051601f1981840301815291815260a083019190915251632284879560e01b8152737123c8cbbd76c5c7fcc9f7150f23179bec0ba341906322848795906101479084906000906004016101f7565b600060405180830381600087803b15801561016157600080fd5b505af1158015610175573d6000803e3d6000fd5b5050505050505050565b803573ffffffffffffffffffffffffffffffffffffffff811681146101a357600080fd5b919050565b6000806000606084860312156101bd57600080fd5b6101c68461017f565b92506101d46020850161017f565b9150604084013562ffffff811681146101ec57600080fd5b809150509250925092565b60408152825160408201526000602080850151606084015260408501516080840152606085015160a0840152608085015160c084015260a085015160c060e085015280518061010086015260005b818110156102625782810184015186820161012001528301610245565b506101209150600082828701015281601f19601f83011686010193505050838184015250939250505056fea164736f6c6343000811000a",
  "linkReferences": {},
  "deployedLinkReferences": {}
}