{
  "_format": "hh-sol-artifact-1",
  "contractName": "Revert",
  "sourceName": "contracts/Libraries/Revert.sol",
  "abi": [
    {
      "inputs": [
        {
          "internalType": "bool",
          "name": "doRevert",
          "type": "bool"
        }
      ],
      "name": "revert",
      "outputs": [],
      "stateMutability": "pure",
      "type": "function"
    },
    {
      "inputs": [
        {
          "internalType": "bool",
          "name": "doRevert",
          "type": "bool"
        },
        {
          "internalType": "string",
          "name": "reason",
          "type": "string"
        }
      ],
      "name": "revertWithReason",
      "outputs": [],
      "stateMutability": "pure",
      "type": "function"
    }
  ],
  "bytecode": "0x608060405234801561001057600080fd5b506101d8806100206000396000f3fe608060405234801561001057600080fd5b50600436106100365760003560e01c80637e104c391461003b578063de80b85b14610050575b600080fd5b61004e6100493660046100f7565b610063565b005b61004e61005e366004610119565b6100b9565b80156100b65760405162461bcd60e51b815260206004820152600c60248201527f436865636b206661696c6564000000000000000000000000000000000000000060448201526064015b60405180910390fd5b50565b818184156100db5760405162461bcd60e51b81526004016100ad92919061019c565b5050505050565b803580151581146100f257600080fd5b919050565b60006020828403121561010957600080fd5b610112826100e2565b9392505050565b60008060006040848603121561012e57600080fd5b610137846100e2565b9250602084013567ffffffffffffffff8082111561015457600080fd5b818601915086601f83011261016857600080fd5b81358181111561017757600080fd5b87602082850101111561018957600080fd5b6020830194508093505050509250925092565b60208152816020820152818360408301376000818301604090810191909152601f909201601f1916010191905056fea164736f6c6343000811000a",
  "linkReferences": {},
  "deployedLinkReferences": {}
}