{
  "_format": "hh-sol-artifact-1",
  "contractName": "All",
  "sourceName": "contracts/Libraries/All.sol",
  "abi": [
    {
      "anonymous": false,
      "inputs": [
        {
          "indexed": false,
          "internalType": "address",
          "name": "message",
          "type": "address"
        }
      ],
      "name": "LogAddress",
      "type": "event"
    },
    {
      "anonymous": false,
      "inputs": [
        {
          "indexed": false,
          "internalType": "bytes",
          "name": "message",
          "type": "bytes"
        }
      ],
      "name": "LogBytes",
      "type": "event"
    },
    {
      "anonymous": false,
      "inputs": [
        {
          "indexed": false,
          "internalType": "bytes32",
          "name": "message",
          "type": "bytes32"
        }
      ],
      "name": "LogBytes32",
      "type": "event"
    },
    {
      "anonymous": false,
      "inputs": [
        {
          "indexed": false,
          "internalType": "string",
          "name": "message",
          "type": "string"
        }
      ],
      "name": "LogString",
      "type": "event"
    },
    {
      "anonymous": false,
      "inputs": [
        {
          "indexed": false,
          "internalType": "uint256",
          "name": "message",
          "type": "uint256"
        }
      ],
      "name": "LogUint",
      "type": "event"
    },
    {
      "inputs": [
        {
          "internalType": "uint256",
          "name": "a",
          "type": "uint256"
        },
        {
          "internalType": "uint256",
          "name": "b",
          "type": "uint256"
        }
      ],
      "name": "add",
      "outputs": [
        {
          "internalType": "uint256",
          "name": "",
          "type": "uint256"
        }
      ],
      "stateMutability": "pure",
      "type": "function"
    },
    {
      "inputs": [],
      "name": "baseFee",
      "outputs": [
        {
          "internalType": "uint256",
          "name": "",
          "type": "uint256"
        }
      ],
      "stateMutability": "view",
      "type": "function"
    },
    {
      "inputs": [
        {
          "internalType": "address",
          "name": "underlying",
          "type": "address"
        },
        {
          "internalType": "address",
          "name": "collateral",
          "type": "address"
        },
        {
          "internalType": "uint24",
          "name": "fee",
          "type": "uint24"
        }
      ],
      "name": "closePosition",
      "outputs": [],
      "stateMutability": "nonpayable",
      "type": "function"
    },
    {
      "inputs": [],
      "name": "coinbase",
      "outputs": [
        {
          "internalType": "address",
          "name": "",
          "type": "address"
        }
      ],
      "stateMutability": "view",
      "type": "function"
    },
    {
      "inputs": [
        {
          "internalType": "uint256",
          "name": "a",
          "type": "uint256"
        },
        {
          "internalType": "uint256",
          "name": "b",
          "type": "uint256"
        }
      ],
      "name": "eq",
      "outputs": [
        {
          "internalType": "bool",
          "name": "",
          "type": "bool"
        }
      ],
      "stateMutability": "pure",
      "type": "function"
    },
    {
      "inputs": [
        {
          "internalType": "bytes",
          "name": "tuple",
          "type": "bytes"
        },
        {
          "internalType": "uint256",
          "name": "index",
          "type": "uint256"
        }
      ],
      "name": "extractElement",
      "outputs": [
        {
          "internalType": "bytes32",
          "name": "",
          "type": "bytes32"
        }
      ],
      "stateMutability": "pure",
      "type": "function"
    },
    {
      "inputs": [],
      "name": "gasLimit",
      "outputs": [
        {
          "internalType": "uint256",
          "name": "",
          "type": "uint256"
        }
      ],
      "stateMutability": "view",
      "type": "function"
    },
    {
      "inputs": [],
      "name": "gasPrice",
      "outputs": [
        {
          "internalType": "uint256",
          "name": "",
          "type": "uint256"
        }
      ],
      "stateMutability": "view",
      "type": "function"
    },
    {
      "inputs": [
        {
          "internalType": "address",
          "name": "underlying",
          "type": "address"
        }
      ],
      "name": "getPrice",
      "outputs": [
        {
          "internalType": "uint256",
          "name": "",
          "type": "uint256"
        }
      ],
      "stateMutability": "view",
      "type": "function"
    },
    {
      "inputs": [
        {
          "internalType": "uint256",
          "name": "a",
          "type": "uint256"
        },
        {
          "internalType": "uint256",
          "name": "b",
          "type": "uint256"
        }
      ],
      "name": "gt",
      "outputs": [
        {
          "internalType": "bool",
          "name": "",
          "type": "bool"
        }
      ],
      "stateMutability": "pure",
      "type": "function"
    },
    {
      "inputs": [
        {
          "internalType": "uint256",
          "name": "a",
          "type": "uint256"
        },
        {
          "internalType": "uint256",
          "name": "b",
          "type": "uint256"
        }
      ],
      "name": "gte",
      "outputs": [
        {
          "internalType": "bool",
          "name": "",
          "type": "bool"
        }
      ],
      "stateMutability": "pure",
      "type": "function"
    },
    {
      "inputs": [
        {
          "internalType": "address",
          "name": "message",
          "type": "address"
        }
      ],
      "name": "logAddress",
      "outputs": [],
      "stateMutability": "nonpayable",
      "type": "function"
    },
    {
      "inputs": [
        {
          "internalType": "bytes",
          "name": "message",
          "type": "bytes"
        }
      ],
      "name": "logBytes",
      "outputs": [],
      "stateMutability": "nonpayable",
      "type": "function"
    },
    {
      "inputs": [
        {
          "internalType": "bytes32",
          "name": "message",
          "type": "bytes32"
        }
      ],
      "name": "logBytes32",
      "outputs": [],
      "stateMutability": "nonpayable",
      "type": "function"
    },
    {
      "inputs": [
        {
          "internalType": "string",
          "name": "message",
          "type": "string"
        }
      ],
      "name": "logString",
      "outputs": [],
      "stateMutability": "nonpayable",
      "type": "function"
    },
    {
      "inputs": [
        {
          "internalType": "uint256",
          "name": "message",
          "type": "uint256"
        }
      ],
      "name": "logUint",
      "outputs": [],
      "stateMutability": "nonpayable",
      "type": "function"
    },
    {
      "inputs": [
        {
          "internalType": "uint256",
          "name": "message",
          "type": "uint256"
        }
      ],
      "name": "logUintPayable",
      "outputs": [],
      "stateMutability": "payable",
      "type": "function"
    },
    {
      "inputs": [
        {
          "internalType": "uint256",
          "name": "a",
          "type": "uint256"
        },
        {
          "internalType": "uint256",
          "name": "b",
          "type": "uint256"
        }
      ],
      "name": "lt",
      "outputs": [
        {
          "internalType": "bool",
          "name": "",
          "type": "bool"
        }
      ],
      "stateMutability": "pure",
      "type": "function"
    },
    {
      "inputs": [
        {
          "internalType": "uint256",
          "name": "a",
          "type": "uint256"
        },
        {
          "internalType": "uint256",
          "name": "b",
          "type": "uint256"
        }
      ],
      "name": "lte",
      "outputs": [
        {
          "internalType": "bool",
          "name": "",
          "type": "bool"
        }
      ],
      "stateMutability": "pure",
      "type": "function"
    },
    {
      "inputs": [
        {
          "internalType": "uint256",
          "name": "a",
          "type": "uint256"
        },
        {
          "internalType": "uint256",
          "name": "b",
          "type": "uint256"
        }
      ],
      "name": "mul",
      "outputs": [
        {
          "internalType": "uint256",
          "name": "",
          "type": "uint256"
        }
      ],
      "stateMutability": "pure",
      "type": "function"
    },
    {
      "inputs": [
        {
          "internalType": "uint256",
          "name": "a",
          "type": "uint256"
        },
        {
          "internalType": "uint256",
          "name": "b",
          "type": "uint256"
        }
      ],
      "name": "neq",
      "outputs": [
        {
          "internalType": "bool",
          "name": "",
          "type": "bool"
        }
      ],
      "stateMutability": "pure",
      "type": "function"
    },
    {
      "inputs": [],
      "name": "number",
      "outputs": [
        {
          "internalType": "uint256",
          "name": "",
          "type": "uint256"
        }
      ],
      "stateMutability": "view",
      "type": "function"
    },
    {
      "inputs": [],
      "name": "origin",
      "outputs": [
        {
          "internalType": "address",
          "name": "",
          "type": "address"
        }
      ],
      "stateMutability": "view",
      "type": "function"
    },
    {
      "inputs": [
        {
          "internalType": "bytes32",
          "name": "slot",
          "type": "bytes32"
        },
        {
          "internalType": "bytes32",
          "name": "value",
          "type": "bytes32"
        }
      ],
      "name": "readStorage",
      "outputs": [
        {
          "internalType": "bytes32",
          "name": "",
          "type": "bytes32"
        }
      ],
      "stateMutability": "nonpayable",
      "type": "function"
    },
    {
      "inputs": [
        {
          "internalType": "bool",
          "name": "doRevert",
          "type": "bool"
        }
      ],
      "name": "revert",
      "outputs": [],
      "stateMutability": "pure",
      "type": "function"
    },
    {
      "inputs": [
        {
          "internalType": "bool",
          "name": "doRevert",
          "type": "bool"
        },
        {
          "internalType": "string",
          "name": "reason",
          "type": "string"
        }
      ],
      "name": "revertWithReason",
      "outputs": [],
      "stateMutability": "pure",
      "type": "function"
    },
    {
      "inputs": [
        {
          "internalType": "string",
          "name": "a",
          "type": "string"
        },
        {
          "internalType": "string",
          "name": "b",
          "type": "string"
        }
      ],
      "name": "strcat",
      "outputs": [
        {
          "internalType": "string",
          "name": "",
          "type": "string"
        }
      ],
      "stateMutability": "pure",
      "type": "function"
    },
    {
      "inputs": [
        {
          "internalType": "string",
          "name": "x",
          "type": "string"
        }
      ],
      "name": "strlen",
      "outputs": [
        {
          "internalType": "uint256",
          "name": "",
          "type": "uint256"
        }
      ],
      "stateMutability": "pure",
      "type": "function"
    },
    {
      "inputs": [
        {
          "internalType": "uint256",
          "name": "a",
          "type": "uint256"
        },
        {
          "internalType": "uint256",
          "name": "b",
          "type": "uint256"
        }
      ],
      "name": "sub",
      "outputs": [
        {
          "internalType": "uint256",
          "name": "",
          "type": "uint256"
        }
      ],
      "stateMutability": "pure",
      "type": "function"
    },
    {
      "inputs": [
        {
          "internalType": "uint256[]",
          "name": "values",
          "type": "uint256[]"
        }
      ],
      "name": "sum",
      "outputs": [
        {
          "internalType": "uint256",
          "name": "ret",
          "type": "uint256"
        }
      ],
      "stateMutability": "pure",
      "type": "function"
    },
    {
      "inputs": [],
      "name": "timestamp",
      "outputs": [
        {
          "internalType": "uint256",
          "name": "",
          "type": "uint256"
        }
      ],
      "stateMutability": "view",
      "type": "function"
    },
    {
      "inputs": [
        {
          "internalType": "uint256",
          "name": "amount",
          "type": "uint256"
        }
      ],
      "name": "transferETHToMsgSender",
      "outputs": [],
      "stateMutability": "nonpayable",
      "type": "function"
    },
    {
      "inputs": [
        {
          "internalType": "address",
          "name": "token",
          "type": "address"
        },
        {
          "internalType": "uint256",
          "name": "amount",
          "type": "uint256"
        }
      ],
      "name": "transferToMsgSender",
      "outputs": [],
      "stateMutability": "nonpayable",
      "type": "function"
    },
    {
      "inputs": [
        {
          "internalType": "bytes32",
          "name": "slot",
          "type": "bytes32"
        },
        {
          "internalType": "bytes32",
          "name": "value",
          "type": "bytes32"
        }
      ],
      "name": "writeStorage",
      "outputs": [],
      "stateMutability": "nonpayable",
      "type": "function"
    }
  ],
  "bytecode": "0x608060405234801561001057600080fd5b50611075806100206000396000f3fe6080604052600436106102195760003560e01c80638a38c9ad1161011d578063b80777ea116100b0578063de80b85b1161007f578063ea6515c411610064578063ea6515c4146105ee578063f68016b71461060e578063fe173b971461062157600080fd5b8063de80b85b146105ae578063e17bf956146105ce57600080fd5b8063b80777ea1461052e578063c8a4ac9c14610541578063d67f33fc14610561578063d824ccf31461058157600080fd5b8063a6ae0aac116100ec578063a6ae0aac146104bb578063b4773329146104ce578063b65ad197146104ee578063b67d77c51461050e57600080fd5b80638a38c9ad14610439578063938b5f32146104595780639905b744146104805780639bd3b2271461049b57600080fd5b80633818ca9d116101b05780636ef25c3a1161017f5780637c6ed9ef116101645780637c6ed9ef146103e65780637e104c39146104065780638381f58a1461042657600080fd5b80636ef25c3a146103b3578063771602f7146103c657600080fd5b80633818ca9d1461033457806341976e09146103535780635f91b0af1461037357806369d294be1461039357600080fd5b80632d21d6f7116101ec5780632d21d6f7146102c257806332148d73146102e2578063360db92d14610301578063367bbd781461031457600080fd5b80630194db8e1461021e5780630bb563d614610251578063118fc88c1461027357806321e5749b146102a3575b600080fd5b34801561022a57600080fd5b5061023e610239366004610ae9565b610634565b6040519081526020015b60405180910390f35b34801561025d57600080fd5b5061027161026c366004610ba7565b61067f565b005b34801561027f57600080fd5b5061029361028e366004610be9565b6106bc565b6040519015158152602001610248565b3480156102af57600080fd5b506102936102be366004610be9565b1090565b3480156102ce57600080fd5b506102716102dd366004610c0b565b6106c6565b3480156102ee57600080fd5b506102936102fd366004610be9565b1490565b61027161030f366004610c0b565b6106fc565b34801561032057600080fd5b5061023e61032f366004610ba7565b919050565b34801561034057600080fd5b5061027161034f366004610be9565b9055565b34801561035f57600080fd5b5061023e61036e366004610c3b565b61072c565b34801561037f57600080fd5b5061027161038e366004610c3b565b6107b4565b34801561039f57600080fd5b506102716103ae366004610c56565b6107ed565b3480156103bf57600080fd5b504861023e565b3480156103d257600080fd5b5061023e6103e1366004610be9565b610863565b3480156103f257600080fd5b50610293610401366004610be9565b141590565b34801561041257600080fd5b50610271610421366004610c8e565b610876565b34801561043257600080fd5b504361023e565b34801561044557600080fd5b50610271610454366004610c0b565b6108cc565b34801561046557600080fd5b50325b6040516001600160a01b039091168152602001610248565b34801561048c57600080fd5b5061027161030f366004610c0b565b3480156104a757600080fd5b5061023e6104b6366004610cc1565b6108fd565b3480156104c757600080fd5b5041610468565b3480156104da57600080fd5b506102936104e9366004610be9565b111590565b3480156104fa57600080fd5b5061023e610509366004610be9565b505490565b34801561051a57600080fd5b5061023e610529366004610be9565b61090b565b34801561053a57600080fd5b504261023e565b34801561054d57600080fd5b5061023e61055c366004610be9565b610917565b34801561056d57600080fd5b5061027161057c366004610d76565b610923565b34801561058d57600080fd5b506105a161059c366004610dc5565b610a5d565b6040516102489190610e77565b3480156105ba57600080fd5b506102716105c9366004610e8a565b610a8f565b3480156105da57600080fd5b506102716105e9366004610ba7565b610ab8565b3480156105fa57600080fd5b50610293610609366004610be9565b101590565b34801561061a57600080fd5b504561023e565b34801561062d57600080fd5b503a61023e565b600081815b818110156106775784848281811061065357610653610edf565b90506020020135836106659190610f0b565b925061067081610f1e565b9050610639565b505092915050565b7fa95e6e2a182411e7a6f9ed114a85c3761d87f9b8f453d842c71235aa64fff99f82826040516106b0929190610f60565b60405180910390a15050565b8082105b92915050565b6040518181527e9fd52f05c0ded31d6fb0ee580b923f85e99cf1a5a1da342f25e73c45829c83906020015b60405180910390a150565b6040518181527f0ac68d08c5119b8cdb4058edbf0d4168f208ec3935d26a8f1f0d92eb9d4de8bf906020016106f1565b6040516341976e0960e01b81526001600160a01b038216600482015260009081907359828fdf7ee634aaad3f58b19fdba3b03e2d9d80906341976e09906024016040805180830381865afa158015610788573d6000803e3d6000fd5b505050506040513d601f19601f820116820180604052508101906107ac9190610f7c565b509392505050565b6040516001600160a01b03821681527fb123f68b8ba02b447d91a6629e121111b7dd6061ff418a60139c8bf00522a284906020016106f1565b60405163a9059cbb60e01b8152336004820152602481018290526001600160a01b0383169063a9059cbb906044016020604051808303816000875af115801561083a573d6000803e3d6000fd5b505050506040513d601f19601f8201168201806040525081019061085e9190610fa0565b505050565b600061086f8284610f0b565b9392505050565b80156108c95760405162461bcd60e51b815260206004820152600c60248201527f436865636b206661696c6564000000000000000000000000000000000000000060448201526064015b60405180910390fd5b50565b604051339082156108fc029083906000818181858888f193505050501580156108f9573d6000803e3d6000fd5b5050565b600060208060018401028401f35b600061086f8284610fbd565b600061086f8284610fd0565b61095c6040518060c001604052806000815260200160008152602001600081526020016000815260200160008152602001606081525090565b60008082526020808301829052604080840183905260608085018490526080850193909352516bffffffffffffffffffffffff1987841b8116928201929092527fffffff000000000000000000000000000000000000000000000000000000000060e886901b1660348201529185901b166037820152604b0160408051601f1981840301815291815260a083019190915251632284879560e01b8152737123c8cbbd76c5c7fcc9f7150f23179bec0ba34190632284879590610a25908490600090600401610fe7565b600060405180830381600087803b158015610a3f57600080fd5b505af1158015610a53573d6000803e3d6000fd5b5050505050505050565b606084848484604051602001610a769493929190611046565b6040516020818303038152906040529050949350505050565b81818415610ab15760405162461bcd60e51b81526004016108c0929190610f60565b5050505050565b7f532fd6ea96cfb78bb46e09279a26828b8b493de1a2b8b1ee1face527978a15a582826040516106b0929190610f60565b60008060208385031215610afc57600080fd5b823567ffffffffffffffff80821115610b1457600080fd5b818501915085601f830112610b2857600080fd5b813581811115610b3757600080fd5b8660208260051b8501011115610b4c57600080fd5b60209290920196919550909350505050565b60008083601f840112610b7057600080fd5b50813567ffffffffffffffff811115610b8857600080fd5b602083019150836020828501011115610ba057600080fd5b9250929050565b60008060208385031215610bba57600080fd5b823567ffffffffffffffff811115610bd157600080fd5b610bdd85828601610b5e565b90969095509350505050565b60008060408385031215610bfc57600080fd5b50508035926020909101359150565b600060208284031215610c1d57600080fd5b5035919050565b80356001600160a01b038116811461032f57600080fd5b600060208284031215610c4d57600080fd5b61086f82610c24565b60008060408385031215610c6957600080fd5b610c7283610c24565b946020939093013593505050565b80151581146108c957600080fd5b600060208284031215610ca057600080fd5b813561086f81610c80565b634e487b7160e01b600052604160045260246000fd5b60008060408385031215610cd457600080fd5b823567ffffffffffffffff80821115610cec57600080fd5b818501915085601f830112610d0057600080fd5b813581811115610d1257610d12610cab565b604051601f8201601f19908116603f01168101908382118183101715610d3a57610d3a610cab565b81604052828152886020848701011115610d5357600080fd5b826020860160208301376000602093820184015298969091013596505050505050565b600080600060608486031215610d8b57600080fd5b610d9484610c24565b9250610da260208501610c24565b9150604084013562ffffff81168114610dba57600080fd5b809150509250925092565b60008060008060408587031215610ddb57600080fd5b843567ffffffffffffffff80821115610df357600080fd5b610dff88838901610b5e565b90965094506020870135915080821115610e1857600080fd5b50610e2587828801610b5e565b95989497509550505050565b6000815180845260005b81811015610e5757602081850181015186830182015201610e3b565b506000602082860101526020601f19601f83011685010191505092915050565b60208152600061086f6020830184610e31565b600080600060408486031215610e9f57600080fd5b8335610eaa81610c80565b9250602084013567ffffffffffffffff811115610ec657600080fd5b610ed286828701610b5e565b9497909650939450505050565b634e487b7160e01b600052603260045260246000fd5b634e487b7160e01b600052601160045260246000fd5b808201808211156106c0576106c0610ef5565b600060018201610f3057610f30610ef5565b5060010190565b81835281816020850137506000828201602090810191909152601f909101601f19169091010190565b602081526000610f74602083018486610f37565b949350505050565b60008060408385031215610f8f57600080fd5b505080516020909101519092909150565b600060208284031215610fb257600080fd5b815161086f81610c80565b818103818111156106c0576106c0610ef5565b80820281158282048414176106c0576106c0610ef5565b60408152825160408201526020830151606082015260408301516080820152606083015160a0820152608083015160c0820152600060a084015160c060e0840152611036610100840182610e31565b9150508260208301529392505050565b838582376000848201600081528385823760009301928352509094935050505056fea164736f6c6343000811000a",
  "linkReferences": {},
  "deployedLinkReferences": {}
}