{
  "_format": "hh-sol-artifact-1",
  "contractName": "Token",
  "sourceName": "contracts/Libraries/Token.sol",
  "abi": [
    {
      "inputs": [
        {
          "internalType": "uint256",
          "name": "amount",
          "type": "uint256"
        }
      ],
      "name": "transferETHToMsgSender",
      "outputs": [],
      "stateMutability": "nonpayable",
      "type": "function"
    },
    {
      "inputs": [
        {
          "internalType": "address",
          "name": "token",
          "type": "address"
        },
        {
          "internalType": "uint256",
          "name": "amount",
          "type": "uint256"
        }
      ],
      "name": "transferToMsgSender",
      "outputs": [],
      "stateMutability": "nonpayable",
      "type": "function"
    }
  ],
  "bytecode": "0x608060405234801561001057600080fd5b506101ab806100206000396000f3fe608060405234801561001057600080fd5b50600436106100365760003560e01c806369d294be1461003b5780638a38c9ad14610050575b600080fd5b61004e610049366004610117565b610063565b005b61004e61005e36600461015c565b6100e6565b60405163a9059cbb60e01b81523360048201526024810182905273ffffffffffffffffffffffffffffffffffffffff83169063a9059cbb906044016020604051808303816000875af11580156100bd573d6000803e3d6000fd5b505050506040513d601f19601f820116820180604052508101906100e19190610175565b505050565b604051339082156108fc029083906000818181858888f19350505050158015610113573d6000803e3d6000fd5b5050565b6000806040838503121561012a57600080fd5b823573ffffffffffffffffffffffffffffffffffffffff8116811461014e57600080fd5b946020939093013593505050565b60006020828403121561016e57600080fd5b5035919050565b60006020828403121561018757600080fd5b8151801515811461019757600080fd5b939250505056fea164736f6c6343000811000a",
  "linkReferences": {},
  "deployedLinkReferences": {}
}