{
  "_format": "hh-sol-artifact-1",
  "contractName": "WeirollModule",
  "sourceName": "contracts/WeirollModule.sol",
  "abi": [
    {
      "inputs": [
        {
          "internalType": "address",
          "name": "_euler",
          "type": "address"
        },
        {
          "internalType": "address",
          "name": "_exec",
          "type": "address"
        }
      ],
      "stateMutability": "nonpayable",
      "type": "constructor"
    },
    {
      "inputs": [
        {
          "internalType": "uint256",
          "name": "command_index",
          "type": "uint256"
        },
        {
          "internalType": "address",
          "name": "target",
          "type": "address"
        },
        {
          "internalType": "string",
          "name": "message",
          "type": "string"
        }
      ],
      "name": "ExecutionFailed",
      "type": "error"
    },
    {
      "anonymous": false,
      "inputs": [
        {
          "indexed": true,
          "internalType": "address",
          "name": "module",
          "type": "address"
        },
        {
          "indexed": true,
          "internalType": "bytes32",
          "name": "scriptHash",
          "type": "bytes32"
        },
        {
          "indexed": false,
          "internalType": "uint256",
          "name": "reward",
          "type": "uint256"
        },
        {
          "indexed": false,
          "internalType": "bytes32[]",
          "name": "commands",
          "type": "bytes32[]"
        },
        {
          "indexed": false,
          "internalType": "bytes[]",
          "name": "state",
          "type": "bytes[]"
        }
      ],
      "name": "OrderCreated",
      "type": "event"
    },
    {
      "anonymous": false,
      "inputs": [
        {
          "indexed": true,
          "internalType": "address",
          "name": "module",
          "type": "address"
        },
        {
          "indexed": true,
          "internalType": "bytes32",
          "name": "scriptHash",
          "type": "bytes32"
        }
      ],
      "name": "OrderRemoved",
      "type": "event"
    },
    {
      "inputs": [],
      "name": "NAME",
      "outputs": [
        {
          "internalType": "string",
          "name": "",
          "type": "string"
        }
      ],
      "stateMutability": "view",
      "type": "function"
    },
    {
      "inputs": [],
      "name": "VERSION",
      "outputs": [
        {
          "internalType": "string",
          "name": "",
          "type": "string"
        }
      ],
      "stateMutability": "view",
      "type": "function"
    },
    {
      "inputs": [
        {
          "internalType": "uint256",
          "name": "reward",
          "type": "uint256"
        },
        {
          "internalType": "bytes32[]",
          "name": "commands",
          "type": "bytes32[]"
        },
        {
          "internalType": "bytes[]",
          "name": "state",
          "type": "bytes[]"
        }
      ],
      "name": "addAllowedScript",
      "outputs": [],
      "stateMutability": "nonpayable",
      "type": "function"
    },
    {
      "inputs": [],
      "name": "euler",
      "outputs": [
        {
          "internalType": "address",
          "name": "",
          "type": "address"
        }
      ],
      "stateMutability": "view",
      "type": "function"
    },
    {
      "inputs": [],
      "name": "exec",
      "outputs": [
        {
          "internalType": "address",
          "name": "",
          "type": "address"
        }
      ],
      "stateMutability": "view",
      "type": "function"
    },
    {
      "inputs": [
        {
          "internalType": "bytes32[]",
          "name": "commands",
          "type": "bytes32[]"
        },
        {
          "internalType": "bytes[]",
          "name": "state",
          "type": "bytes[]"
        }
      ],
      "name": "execute",
      "outputs": [],
      "stateMutability": "payable",
      "type": "function"
    },
    {
      "inputs": [
        {
          "internalType": "address payable",
          "name": "safe",
          "type": "address"
        },
        {
          "internalType": "bytes32[]",
          "name": "commands",
          "type": "bytes32[]"
        },
        {
          "internalType": "bytes[]",
          "name": "state",
          "type": "bytes[]"
        }
      ],
      "name": "executeWeiroll",
      "outputs": [],
      "stateMutability": "nonpayable",
      "type": "function"
    },
    {
      "inputs": [
        {
          "internalType": "bytes",
          "name": "data",
          "type": "bytes"
        }
      ],
      "name": "onDeferredLiquidityCheck",
      "outputs": [],
      "stateMutability": "nonpayable",
      "type": "function"
    },
    {
      "inputs": [
        {
          "internalType": "bytes32",
          "name": "scriptHash",
          "type": "bytes32"
        }
      ],
      "name": "removeAllowedScript",
      "outputs": [],
      "stateMutability": "nonpayable",
      "type": "function"
    }
  ],
  "bytecode": "0x60e06040523480156200001157600080fd5b5060405162001c6e38038062001c6e83398101604081905262000034916200006d565b306080526001600160a01b0391821660a0521660c052620000a5565b80516001600160a01b03811681146200006857600080fd5b919050565b600080604083850312156200008157600080fd5b6200008c8362000050565b91506200009c6020840162000050565b90509250929050565b60805160a05160c051611b8e620000e06000396000818161018e01526108160152600081816101da0152610722015260005050611b8e6000f3fe6080604052600436106100965760003560e01c8063a3f4df7e11610069578063db661b711161004e578063db661b71146101c8578063de792d5f146101fc578063ffa1ad741461020f57600080fd5b8063a3f4df7e1461011d578063c1c0e9c41461017c57600080fd5b80632752d5081461009b5780633069dffd146100bd578063696e34a8146100dd578063a15db5c5146100fd575b600080fd5b3480156100a757600080fd5b506100bb6100b63660046112a8565b610258565b005b3480156100c957600080fd5b506100bb6100d8366004611481565b610308565b3480156100e957600080fd5b506100bb6100f8366004611509565b61063e565b34801561010957600080fd5b506100bb6101183660046115cd565b610717565b34801561012957600080fd5b506101666040518060400160405280600e81526020017f576569726f6c6c204d6f64756c6500000000000000000000000000000000000081525081565b604051610173919061165a565b60405180910390f35b34801561018857600080fd5b506101b07f000000000000000000000000000000000000000000000000000000000000000081565b6040516001600160a01b039091168152602001610173565b3480156101d457600080fd5b506101b07f000000000000000000000000000000000000000000000000000000000000000081565b6100bb61020a36600461166d565b6107ba565b34801561021b57600080fd5b506101666040518060400160405280600581526020017f302e312e3000000000000000000000000000000000000000000000000000000081525081565b336000908152602081815260408083208484529091529020546102c25760405162461bcd60e51b815260206004820152601560248201527f6d75737420626520616c6c6f776564206669727374000000000000000000000060448201526064015b60405180910390fd5b33600081815260208181526040808320858452909152808220829055518392917facb1d2099f25a5aa82bdbe78daa1c35c774b530bb9eced29e9f165c66ab7cfba91a350565b600083838360405160200161031f93929190611721565b60408051601f1981840301815291815281516020928301206001600160a01b0388166000908152808452828120828252909352912054909150806103a55760405162461bcd60e51b815260206004820152601660248201527f6e6f7420616c6c6f77656420746f20657865637574650000000000000000000060448201526064016102b9565b6001546001600160a01b0316156103fe5760405162461bcd60e51b815260206004820152601960248201527f63757272656e742073616665206d757374206265207a65726f0000000000000060448201526064016102b9565b600085858560405160240161041593929190611721565b60408051601f198184030181529181526020820180517bffffffffffffffffffffffffffffffffffffffffffffffffffffffff1663de792d5f60e01b179052600180546001600160a01b038b1673ffffffffffffffffffffffffffffffffffffffff1990911681178255915163468721a760e01b8152929350909163468721a7916104aa9130916000918791906004016117ac565b6020604051808303816000875af11580156104c9573d6000803e3d6000fd5b505050506040513d601f19601f820116820180604052508101906104ed91906117ec565b6105395760405162461bcd60e51b815260206004820152601860248201527f636f756c64206e6f74206578656375746520736372697074000000000000000060448201526064016102b9565b6001600160a01b0387166000818152602081815260408083208784529091528082208290555163468721a760e01b815263468721a79161057f913391879160040161180e565b6020604051808303816000875af115801561059e573d6000803e3d6000fd5b505050506040513d601f19601f820116820180604052508101906105c291906117ec565b6106185760405162461bcd60e51b815260206004820152602160248201527f636f756c64206e6f74206578656375746520726577617264207472616e7366656044820152603960f91b60648201526084016102b9565b50506001805473ffffffffffffffffffffffffffffffffffffffff191690555050505050565b6000831161068e5760405162461bcd60e51b815260206004820152601d60248201527f726577617264206d7573742062652067726561746572207468616e203000000060448201526064016102b9565b600082826040516020016106a392919061187e565b60408051601f19818403018152828252805160209182012033600081815280845284812083825290935292909120879055925082917fe25e0a3412492259442510f9647aca04397f313200a3783bdd40677323e9e55990610709908890889088906118a3565b60405180910390a350505050565b336001600160a01b037f0000000000000000000000000000000000000000000000000000000000000000161461078f5760405162461bcd60e51b815260206004820152600d60248201527f6d7573742062652065756c65720000000000000000000000000000000000000060448201526064016102b9565b600080828060200190518101906107a6919061198a565b915091506107b482826108bc565b50505050565b6001546001600160a01b031633146108145760405162461bcd60e51b815260206004820152601460248201527f6d7573742062652063757272656e74207361666500000000000000000000000060448201526064016102b9565b7f00000000000000000000000000000000000000000000000000000000000000006001600160a01b03166389b7b7a63385858560405160200161085993929190611721565b6040516020818303038152906040526040518363ffffffff1660e01b8152600401610885929190611a46565b600060405180830381600087803b15801561089f57600080fd5b505af11580156108b3573d6000803e3d6000fd5b50505050505050565b6060600080600080606060008851905060005b81811015610cc3578981815181106108e9576108e9611a68565b60200260200101519650602087901b60f81c60ff1695506080861660001461093757898161091681611a94565b92508151811061092857610928611a68565b6020026020010151945061095b565b602887901b79ffffffffffffffffffffffffffffffffffffffffffffffffffff1794505b600386166109d0576001600160a01b0387166109788a8988610cd4565b6040516109859190611aad565b600060405180830381855af49150503d80600081146109c0576040519150601f19603f3d011682016040523d82523d6000602084013e6109c5565b606091505b509094509250610c11565b60016003871603610a3a576001600160a01b0387166109f08a8988610cd4565b6040516109fd9190611aad565b6000604051808303816000865af19150503d80600081146109c0576040519150601f19603f3d011682016040523d82523d6000602084013e6109c5565b60026003871603610aa2576001600160a01b038716610a5a8a8988610cd4565b604051610a679190611aad565b600060405180830381855afa9150503d80600081146109c0576040519150601f19603f3d011682016040523d82523d6000602084013e6109c5565b600380871603610bc9576000808a8760f81c60ff1681518110610ac757610ac7611a68565b602002602001015190508051602014610b485760405162461bcd60e51b815260206004820152602c60248201527f5f657865637574653a2076616c75652063616c6c20686173206e6f2076616c7560448201527f6520696e646963617465642e000000000000000000000000000000000000000060648201526084016102b9565b602081015191506001600160a01b03891682610b6c8d8c60088c901b60ff17610cd4565b604051610b799190611aad565b60006040518083038185875af1925050503d8060008114610bb6576040519150601f19603f3d011682016040523d82523d6000602084013e610bbb565b606091505b509096509450610c11915050565b60405162461bcd60e51b815260206004820152601060248201527f496e76616c69642063616c6c747970650000000000000000000000000000000060448201526064016102b9565b83610c8c57825115610c24576044830192505b60008760001c6000855111610c6e576040518060400160405280600781526020017f556e6b6e6f776e00000000000000000000000000000000000000000000000000815250610c70565b845b60405163ef3dcb2f60e01b81526004016102b993929190611ac9565b6040861615610ca957610ca489605889901b85611066565b610cbb565b610cb889605889901b8561110b565b98505b6001016108cf565b508796505050505050505b92915050565b606060008060606000805b6020811015610ec657868160208110610cfa57610cfa611a68565b1a915060fe19820115610ec6576080821615610e165760fe8203610d57578251600003610d445788604051602001610d329190611af1565b60405160208183030381529060405292505b8251610d509086611b04565b9450610eb7565b600089607f841681518110610d6e57610d6e611a68565b6020026020010151519050602081610d869190611b17565b15610df95760405162461bcd60e51b815260206004820152603660248201527f44796e616d6963207374617465207661726961626c6573206d7573742062652060448201527f61206d756c7469706c65206f662033322062797465730000000000000000000060648201526084016102b9565b610e04816020611b04565b610e0e9087611b04565b955050610eb7565b88607f831681518110610e2b57610e2b611a68565b602002602001015151602014610ea95760405162461bcd60e51b815260206004820152602760248201527f537461746963207374617465207661726961626c6573206d757374206265203360448201527f322062797465730000000000000000000000000000000000000000000000000060648201526084016102b9565b610eb4602086611b04565b94505b60209390930192600101610cdf565b50610ed2846004611b04565b67ffffffffffffffff811115610eea57610eea61130d565b6040519080825280601f01601f191660200182016040528015610f14576020820181803683370190505b5094508660208601526000935060005b602081101561105a57868160208110610f3f57610f3f611a68565b1a915060fe1982011561105a57608082161561101c5760fe8203610faa57858501602401849052610f8b83602088610f78886004611b04565b60208851610f869190611b39565b61128e565b60208351610f999190611b39565b610fa39085611b04565b935061104b565b600089607f841681518110610fc157610fc1611a68565b6020026020010151519050848660248901015261100a8a607f851681518110610fec57610fec611a68565b60200260200101516000898860046110049190611b04565b8561128e565b6110148186611b04565b94505061104b565b600089607f84168151811061103357611033611a68565b60200260200101519050602081015186602489010152505b60209490940193600101610f24565b50505050509392505050565b60f882901c60fe19810161107a5750505050565b60008251602061108a9190611b04565b67ffffffffffffffff8111156110a2576110a261130d565b6040519080825280601f01601f1916602001820160405280156110cc576020820181803683370190505b508583815181106110df576110df611a68565b6020026020010181905290506110fb836000836020875161128e565b8251806020830152505050505050565b606060f883901c60fe1981016111245784915050611287565b60808116156111e95760fe810361115057828060200190518101906111499190611b4c565b9450611282565b6020838101519081146111cb5760405162461bcd60e51b815260206004820152602a60248201527f4f6e6c79206f6e652072657475726e2076616c7565207065726d69747465642060448201527f287661726961626c65290000000000000000000000000000000000000000000060648201526084016102b9565b508251601f19016020848101918252607f8316810287010152611282565b82516020146112605760405162461bcd60e51b815260206004820152602860248201527f4f6e6c79206f6e652072657475726e2076616c7565207065726d69747465642060448201527f287374617469632900000000000000000000000000000000000000000000000060648201526084016102b9565b8285607f83168151811061127657611276611a68565b60200260200101819052505b849150505b9392505050565b808260208501018286602089010160045afa505050505050565b6000602082840312156112ba57600080fd5b5035919050565b60008083601f8401126112d357600080fd5b50813567ffffffffffffffff8111156112eb57600080fd5b6020830191508360208260051b850101111561130657600080fd5b9250929050565b634e487b7160e01b600052604160045260246000fd5b604051601f8201601f1916810167ffffffffffffffff8111828210171561134c5761134c61130d565b604052919050565b600067ffffffffffffffff82111561136e5761136e61130d565b5060051b60200190565b600067ffffffffffffffff8211156113925761139261130d565b50601f01601f191660200190565b600082601f8301126113b157600080fd5b81356113c46113bf82611378565b611323565b8181528460208386010111156113d957600080fd5b816020850160208301376000918101602001919091529392505050565b600082601f83011261140757600080fd5b813560206114176113bf83611354565b82815260059290921b8401810191818101908684111561143657600080fd5b8286015b8481101561147657803567ffffffffffffffff81111561145a5760008081fd5b6114688986838b01016113a0565b84525091830191830161143a565b509695505050505050565b6000806000806060858703121561149757600080fd5b84356001600160a01b03811681146114ae57600080fd5b9350602085013567ffffffffffffffff808211156114cb57600080fd5b6114d7888389016112c1565b909550935060408701359150808211156114f057600080fd5b506114fd878288016113f6565b91505092959194509250565b60008060006060848603121561151e57600080fd5b8335925060208085013567ffffffffffffffff8082111561153e57600080fd5b818701915087601f83011261155257600080fd5b81356115606113bf82611354565b81815260059190911b8301840190848101908a83111561157f57600080fd5b938501935b8285101561159d57843582529385019390850190611584565b9650505060408701359250808311156115b557600080fd5b50506115c3868287016113f6565b9150509250925092565b6000602082840312156115df57600080fd5b813567ffffffffffffffff8111156115f657600080fd5b611602848285016113a0565b949350505050565b60005b8381101561162557818101518382015260200161160d565b50506000910152565b6000815180845261164681602086016020860161160a565b601f01601f19169290920160200192915050565b602081526000611287602083018461162e565b60008060006040848603121561168257600080fd5b833567ffffffffffffffff8082111561169a57600080fd5b6116a6878388016112c1565b909550935060208601359150808211156116bf57600080fd5b506115c3868287016113f6565b600081518084526020808501808196508360051b8101915082860160005b8581101561171457828403895261170284835161162e565b988501989350908401906001016116ea565b5091979650505050505050565b6040815282604082015260007f07ffffffffffffffffffffffffffffffffffffffffffffffffffffffffffffff84111561175a57600080fd5b8360051b80866060850137820182810360609081016020850152611780908201856116cc565b9695505050505050565b600281106117a857634e487b7160e01b600052602160045260246000fd5b9052565b6001600160a01b03851681528360208201526080604082015260006117d4608083018561162e565b90506117e3606083018461178a565b95945050505050565b6000602082840312156117fe57600080fd5b8151801515811461128757600080fd5b6001600160a01b03841681528260208201526080604082015260006080820152600060a082019050611602606083018461178a565b600081518084526020808501945080840160005b8381101561187357815187529582019590820190600101611857565b509495945050505050565b6040815260006118916040830185611843565b82810360208401526117e381856116cc565b8381526060602082015260006118bc6060830185611843565b828103604084015261178081856116cc565b600082601f8301126118df57600080fd5b815160206118ef6113bf83611354565b82815260059290921b8401810191818101908684111561190e57600080fd5b8286015b8481101561147657805167ffffffffffffffff8111156119325760008081fd5b8701603f810189136119445760008081fd5b8481015160406119566113bf83611378565b8281528b8284860101111561196b5760008081fd5b61197a8389830184870161160a565b8652505050918301918301611912565b6000806040838503121561199d57600080fd5b825167ffffffffffffffff808211156119b557600080fd5b818501915085601f8301126119c957600080fd5b815160206119d96113bf83611354565b82815260059290921b840181019181810190898411156119f857600080fd5b948201945b83861015611a16578551825294820194908201906119fd565b91880151919650909350505080821115611a2f57600080fd5b50611a3c858286016118ce565b9150509250929050565b6001600160a01b0383168152604060208201526000611602604083018461162e565b634e487b7160e01b600052603260045260246000fd5b634e487b7160e01b600052601160045260246000fd5b600060018201611aa657611aa6611a7e565b5060010190565b60008251611abf81846020870161160a565b9190910192915050565b8381526001600160a01b03831660208201526060604082015260006117e3606083018461162e565b60208152600061128760208301846116cc565b80820180821115610cce57610cce611a7e565b600082611b3457634e487b7160e01b600052601260045260246000fd5b500690565b81810381811115610cce57610cce611a7e565b600060208284031215611b5e57600080fd5b815167ffffffffffffffff811115611b7557600080fd5b611602848285016118ce56fea164736f6c6343000811000a",
  "linkReferences": {},
  "deployedLinkReferences": {}
}