{
  "_format": "hh-sol-artifact-1",
  "contractName": "WeirollModule",
  "sourceName": "contracts/WeirollModule.sol",
  "abi": [
    {
      "inputs": [
        {
          "internalType": "address",
          "name": "_euler",
          "type": "address"
        },
        {
          "internalType": "address",
          "name": "_exec",
          "type": "address"
        }
      ],
      "stateMutability": "nonpayable",
      "type": "constructor"
    },
    {
      "inputs": [
        {
          "internalType": "uint256",
          "name": "command_index",
          "type": "uint256"
        },
        {
          "internalType": "address",
          "name": "target",
          "type": "address"
        },
        {
          "internalType": "string",
          "name": "message",
          "type": "string"
        }
      ],
      "name": "ExecutionFailed",
      "type": "error"
    },
    {
      "anonymous": false,
      "inputs": [
        {
          "indexed": true,
          "internalType": "address",
          "name": "module",
          "type": "address"
        },
        {
          "indexed": true,
          "internalType": "bytes32",
          "name": "scriptHash",
          "type": "bytes32"
        },
        {
          "indexed": false,
          "internalType": "uint256",
          "name": "reward",
          "type": "uint256"
        },
        {
          "indexed": false,
          "internalType": "bytes32[]",
          "name": "commands",
          "type": "bytes32[]"
        },
        {
          "indexed": false,
          "internalType": "bytes[]",
          "name": "state",
          "type": "bytes[]"
        }
      ],
      "name": "OrderCreated",
      "type": "event"
    },
    {
      "anonymous": false,
      "inputs": [
        {
          "indexed": true,
          "internalType": "address",
          "name": "module",
          "type": "address"
        },
        {
          "indexed": true,
          "internalType": "bytes32",
          "name": "scriptHash",
          "type": "bytes32"
        }
      ],
      "name": "OrderRemoved",
      "type": "event"
    },
    {
      "inputs": [],
      "name": "NAME",
      "outputs": [
        {
          "internalType": "string",
          "name": "",
          "type": "string"
        }
      ],
      "stateMutability": "view",
      "type": "function"
    },
    {
      "inputs": [],
      "name": "VERSION",
      "outputs": [
        {
          "internalType": "string",
          "name": "",
          "type": "string"
        }
      ],
      "stateMutability": "view",
      "type": "function"
    },
    {
      "inputs": [
        {
          "internalType": "uint256",
          "name": "reward",
          "type": "uint256"
        },
        {
          "internalType": "bytes32[]",
          "name": "commands",
          "type": "bytes32[]"
        },
        {
          "internalType": "bytes[]",
          "name": "state",
          "type": "bytes[]"
        }
      ],
      "name": "addAllowedScript",
      "outputs": [],
      "stateMutability": "nonpayable",
      "type": "function"
    },
    {
      "inputs": [],
      "name": "euler",
      "outputs": [
        {
          "internalType": "address",
          "name": "",
          "type": "address"
        }
      ],
      "stateMutability": "view",
      "type": "function"
    },
    {
      "inputs": [],
      "name": "exec",
      "outputs": [
        {
          "internalType": "address",
          "name": "",
          "type": "address"
        }
      ],
      "stateMutability": "view",
      "type": "function"
    },
    {
      "inputs": [
        {
          "internalType": "bytes32[]",
          "name": "commands",
          "type": "bytes32[]"
        },
        {
          "internalType": "bytes[]",
          "name": "state",
          "type": "bytes[]"
        }
      ],
      "name": "execute",
      "outputs": [],
      "stateMutability": "payable",
      "type": "function"
    },
    {
      "inputs": [
        {
          "internalType": "address payable",
          "name": "safe",
          "type": "address"
        },
        {
          "internalType": "bytes32[]",
          "name": "commands",
          "type": "bytes32[]"
        },
        {
          "internalType": "bytes[]",
          "name": "state",
          "type": "bytes[]"
        }
      ],
      "name": "executeWeiroll",
      "outputs": [],
      "stateMutability": "nonpayable",
      "type": "function"
    },
    {
      "inputs": [
        {
          "internalType": "bytes",
          "name": "data",
          "type": "bytes"
        }
      ],
      "name": "onDeferredLiquidityCheck",
      "outputs": [],
      "stateMutability": "nonpayable",
      "type": "function"
    },
    {
      "inputs": [
        {
          "internalType": "bytes32",
          "name": "scriptHash",
          "type": "bytes32"
        }
      ],
      "name": "removeAllowedScript",
      "outputs": [],
      "stateMutability": "nonpayable",
      "type": "function"
    }
  ],
  "bytecode": "0x60e06040523480156200001157600080fd5b5060405162001c3538038062001c3583398101604081905262000034916200006d565b306080526001600160a01b0391821660a0521660c052620000a5565b80516001600160a01b03811681146200006857600080fd5b919050565b600080604083850312156200008157600080fd5b6200008c8362000050565b91506200009c6020840162000050565b90509250929050565b60805160a05160c051611b5c620000d9600039600061018e0152600081816101da015261077c015260005050611b5c6000f3fe6080604052600436106100965760003560e01c8063a3f4df7e11610069578063db661b711161004e578063db661b71146101c8578063de792d5f146101fc578063ffa1ad741461020f57600080fd5b8063a3f4df7e1461011d578063c1c0e9c41461017c57600080fd5b80632752d5081461009b5780633069dffd146100bd578063696e34a8146100dd578063a15db5c5146100fd575b600080fd5b3480156100a757600080fd5b506100bb6100b6366004611298565b610258565b005b3480156100c957600080fd5b506100bb6100d8366004611471565b610308565b3480156100e957600080fd5b506100bb6100f83660046114f9565b610698565b34801561010957600080fd5b506100bb6101183660046115bd565b610771565b34801561012957600080fd5b506101666040518060400160405280600e81526020017f576569726f6c6c204d6f64756c6500000000000000000000000000000000000081525081565b604051610173919061164a565b60405180910390f35b34801561018857600080fd5b506101b07f000000000000000000000000000000000000000000000000000000000000000081565b6040516001600160a01b039091168152602001610173565b3480156101d457600080fd5b506101b07f000000000000000000000000000000000000000000000000000000000000000081565b6100bb61020a36600461165d565b610814565b34801561021b57600080fd5b506101666040518060400160405280600581526020017f302e312e3000000000000000000000000000000000000000000000000000000081525081565b336000908152602081815260408083208484529091529020546102c25760405162461bcd60e51b815260206004820152601560248201527f6d75737420626520616c6c6f776564206669727374000000000000000000000060448201526064015b60405180910390fd5b33600081815260208181526040808320858452909152808220829055518392917facb1d2099f25a5aa82bdbe78daa1c35c774b530bb9eced29e9f165c66ab7cfba91a350565b600083838360405160200161031f93929190611711565b60408051601f1981840301815291815281516020928301206001600160a01b0388166000908152808452828120828252909352912054909150806103a55760405162461bcd60e51b815260206004820152601660248201527f6e6f7420616c6c6f77656420746f20657865637574650000000000000000000060448201526064016102b9565b6001546001600160a01b0316156103fe5760405162461bcd60e51b815260206004820152601960248201527f63757272656e742073616665206d757374206265207a65726f0000000000000060448201526064016102b9565b80866001600160a01b03163110156104585760405162461bcd60e51b815260206004820152601f60248201527f736166652062616c616e6365206d75737420626520677465207265776172640060448201526064016102b9565b600085858560405160240161046f93929190611711565b60408051601f198184030181529181526020820180517bffffffffffffffffffffffffffffffffffffffffffffffffffffffff1663de792d5f60e01b179052600180546001600160a01b038b1673ffffffffffffffffffffffffffffffffffffffff1990911681178255915163468721a760e01b8152929350909163468721a79161050491309160009187919060040161179c565b6020604051808303816000875af1158015610523573d6000803e3d6000fd5b505050506040513d601f19601f8201168201806040525081019061054791906117dc565b6105935760405162461bcd60e51b815260206004820152601860248201527f636f756c64206e6f74206578656375746520736372697074000000000000000060448201526064016102b9565b6001600160a01b0387166000818152602081815260408083208784529091528082208290555163468721a760e01b815263468721a7916105d991339187916004016117fe565b6020604051808303816000875af11580156105f8573d6000803e3d6000fd5b505050506040513d601f19601f8201168201806040525081019061061c91906117dc565b6106725760405162461bcd60e51b815260206004820152602160248201527f636f756c64206e6f74206578656375746520726577617264207472616e7366656044820152603960f91b60648201526084016102b9565b50506001805473ffffffffffffffffffffffffffffffffffffffff191690555050505050565b600083116106e85760405162461bcd60e51b815260206004820152601d60248201527f726577617264206d7573742062652067726561746572207468616e203000000060448201526064016102b9565b600082826040516020016106fd92919061186e565b60408051601f19818403018152828252805160209182012033600081815280845284812083825290935292909120879055925082917fe25e0a3412492259442510f9647aca04397f313200a3783bdd40677323e9e5599061076390889088908890611893565b60405180910390a350505050565b336001600160a01b037f000000000000000000000000000000000000000000000000000000000000000016146107e95760405162461bcd60e51b815260206004820152600d60248201527f6d7573742062652065756c65720000000000000000000000000000000000000060448201526064016102b9565b60008082806020019051810190610800919061197a565b9150915061080e82826108ac565b50505050565b6001546001600160a01b0316331461086e5760405162461bcd60e51b815260206004820152601460248201527f6d7573742062652063757272656e74207361666500000000000000000000000060448201526064016102b9565b61080e8383808060200260200160405190810160405280939291908181526020018383602002808284376000920191909152508592506108ac915050565b6060600080600080606060008851905060005b81811015610cb3578981815181106108d9576108d9611a36565b60200260200101519650602087901b60f81c60ff1695506080861660001461092757898161090681611a62565b92508151811061091857610918611a36565b6020026020010151945061094b565b602887901b79ffffffffffffffffffffffffffffffffffffffffffffffffffff1794505b600386166109c0576001600160a01b0387166109688a8988610cc4565b6040516109759190611a7b565b600060405180830381855af49150503d80600081146109b0576040519150601f19603f3d011682016040523d82523d6000602084013e6109b5565b606091505b509094509250610c01565b60016003871603610a2a576001600160a01b0387166109e08a8988610cc4565b6040516109ed9190611a7b565b6000604051808303816000865af19150503d80600081146109b0576040519150601f19603f3d011682016040523d82523d6000602084013e6109b5565b60026003871603610a92576001600160a01b038716610a4a8a8988610cc4565b604051610a579190611a7b565b600060405180830381855afa9150503d80600081146109b0576040519150601f19603f3d011682016040523d82523d6000602084013e6109b5565b600380871603610bb9576000808a8760f81c60ff1681518110610ab757610ab7611a36565b602002602001015190508051602014610b385760405162461bcd60e51b815260206004820152602c60248201527f5f657865637574653a2076616c75652063616c6c20686173206e6f2076616c7560448201527f6520696e646963617465642e000000000000000000000000000000000000000060648201526084016102b9565b602081015191506001600160a01b03891682610b5c8d8c60088c901b60ff17610cc4565b604051610b699190611a7b565b60006040518083038185875af1925050503d8060008114610ba6576040519150601f19603f3d011682016040523d82523d6000602084013e610bab565b606091505b509096509450610c01915050565b60405162461bcd60e51b815260206004820152601060248201527f496e76616c69642063616c6c747970650000000000000000000000000000000060448201526064016102b9565b83610c7c57825115610c14576044830192505b60008760001c6000855111610c5e576040518060400160405280600781526020017f556e6b6e6f776e00000000000000000000000000000000000000000000000000815250610c60565b845b60405163ef3dcb2f60e01b81526004016102b993929190611a97565b6040861615610c9957610c9489605889901b85611056565b610cab565b610ca889605889901b856110fb565b98505b6001016108bf565b508796505050505050505b92915050565b606060008060606000805b6020811015610eb657868160208110610cea57610cea611a36565b1a915060fe19820115610eb6576080821615610e065760fe8203610d47578251600003610d345788604051602001610d229190611abf565b60405160208183030381529060405292505b8251610d409086611ad2565b9450610ea7565b600089607f841681518110610d5e57610d5e611a36565b6020026020010151519050602081610d769190611ae5565b15610de95760405162461bcd60e51b815260206004820152603660248201527f44796e616d6963207374617465207661726961626c6573206d7573742062652060448201527f61206d756c7469706c65206f662033322062797465730000000000000000000060648201526084016102b9565b610df4816020611ad2565b610dfe9087611ad2565b955050610ea7565b88607f831681518110610e1b57610e1b611a36565b602002602001015151602014610e995760405162461bcd60e51b815260206004820152602760248201527f537461746963207374617465207661726961626c6573206d757374206265203360448201527f322062797465730000000000000000000000000000000000000000000000000060648201526084016102b9565b610ea4602086611ad2565b94505b60209390930192600101610ccf565b50610ec2846004611ad2565b67ffffffffffffffff811115610eda57610eda6112fd565b6040519080825280601f01601f191660200182016040528015610f04576020820181803683370190505b5094508660208601526000935060005b602081101561104a57868160208110610f2f57610f2f611a36565b1a915060fe1982011561104a57608082161561100c5760fe8203610f9a57858501602401849052610f7b83602088610f68886004611ad2565b60208851610f769190611b07565b61127e565b60208351610f899190611b07565b610f939085611ad2565b935061103b565b600089607f841681518110610fb157610fb1611a36565b60200260200101515190508486602489010152610ffa8a607f851681518110610fdc57610fdc611a36565b6020026020010151600089886004610ff49190611ad2565b8561127e565b6110048186611ad2565b94505061103b565b600089607f84168151811061102357611023611a36565b60200260200101519050602081015186602489010152505b60209490940193600101610f14565b50505050509392505050565b60f882901c60fe19810161106a5750505050565b60008251602061107a9190611ad2565b67ffffffffffffffff811115611092576110926112fd565b6040519080825280601f01601f1916602001820160405280156110bc576020820181803683370190505b508583815181106110cf576110cf611a36565b6020026020010181905290506110eb836000836020875161127e565b8251806020830152505050505050565b606060f883901c60fe1981016111145784915050611277565b60808116156111d95760fe810361114057828060200190518101906111399190611b1a565b9450611272565b6020838101519081146111bb5760405162461bcd60e51b815260206004820152602a60248201527f4f6e6c79206f6e652072657475726e2076616c7565207065726d69747465642060448201527f287661726961626c65290000000000000000000000000000000000000000000060648201526084016102b9565b508251601f19016020848101918252607f8316810287010152611272565b82516020146112505760405162461bcd60e51b815260206004820152602860248201527f4f6e6c79206f6e652072657475726e2076616c7565207065726d69747465642060448201527f287374617469632900000000000000000000000000000000000000000000000060648201526084016102b9565b8285607f83168151811061126657611266611a36565b60200260200101819052505b849150505b9392505050565b808260208501018286602089010160045afa505050505050565b6000602082840312156112aa57600080fd5b5035919050565b60008083601f8401126112c357600080fd5b50813567ffffffffffffffff8111156112db57600080fd5b6020830191508360208260051b85010111156112f657600080fd5b9250929050565b634e487b7160e01b600052604160045260246000fd5b604051601f8201601f1916810167ffffffffffffffff8111828210171561133c5761133c6112fd565b604052919050565b600067ffffffffffffffff82111561135e5761135e6112fd565b5060051b60200190565b600067ffffffffffffffff821115611382576113826112fd565b50601f01601f191660200190565b600082601f8301126113a157600080fd5b81356113b46113af82611368565b611313565b8181528460208386010111156113c957600080fd5b816020850160208301376000918101602001919091529392505050565b600082601f8301126113f757600080fd5b813560206114076113af83611344565b82815260059290921b8401810191818101908684111561142657600080fd5b8286015b8481101561146657803567ffffffffffffffff81111561144a5760008081fd5b6114588986838b0101611390565b84525091830191830161142a565b509695505050505050565b6000806000806060858703121561148757600080fd5b84356001600160a01b038116811461149e57600080fd5b9350602085013567ffffffffffffffff808211156114bb57600080fd5b6114c7888389016112b1565b909550935060408701359150808211156114e057600080fd5b506114ed878288016113e6565b91505092959194509250565b60008060006060848603121561150e57600080fd5b8335925060208085013567ffffffffffffffff8082111561152e57600080fd5b818701915087601f83011261154257600080fd5b81356115506113af82611344565b81815260059190911b8301840190848101908a83111561156f57600080fd5b938501935b8285101561158d57843582529385019390850190611574565b9650505060408701359250808311156115a557600080fd5b50506115b3868287016113e6565b9150509250925092565b6000602082840312156115cf57600080fd5b813567ffffffffffffffff8111156115e657600080fd5b6115f284828501611390565b949350505050565b60005b838110156116155781810151838201526020016115fd565b50506000910152565b600081518084526116368160208601602086016115fa565b601f01601f19169290920160200192915050565b602081526000611277602083018461161e565b60008060006040848603121561167257600080fd5b833567ffffffffffffffff8082111561168a57600080fd5b611696878388016112b1565b909550935060208601359150808211156116af57600080fd5b506115b3868287016113e6565b600081518084526020808501808196508360051b8101915082860160005b858110156117045782840389526116f284835161161e565b988501989350908401906001016116da565b5091979650505050505050565b6040815282604082015260007f07ffffffffffffffffffffffffffffffffffffffffffffffffffffffffffffff84111561174a57600080fd5b8360051b80866060850137820182810360609081016020850152611770908201856116bc565b9695505050505050565b6002811061179857634e487b7160e01b600052602160045260246000fd5b9052565b6001600160a01b03851681528360208201526080604082015260006117c4608083018561161e565b90506117d3606083018461177a565b95945050505050565b6000602082840312156117ee57600080fd5b8151801515811461127757600080fd5b6001600160a01b03841681528260208201526080604082015260006080820152600060a0820190506115f2606083018461177a565b600081518084526020808501945080840160005b8381101561186357815187529582019590820190600101611847565b509495945050505050565b6040815260006118816040830185611833565b82810360208401526117d381856116bc565b8381526060602082015260006118ac6060830185611833565b828103604084015261177081856116bc565b600082601f8301126118cf57600080fd5b815160206118df6113af83611344565b82815260059290921b840181019181810190868411156118fe57600080fd5b8286015b8481101561146657805167ffffffffffffffff8111156119225760008081fd5b8701603f810189136119345760008081fd5b8481015160406119466113af83611368565b8281528b8284860101111561195b5760008081fd5b61196a838983018487016115fa565b8652505050918301918301611902565b6000806040838503121561198d57600080fd5b825167ffffffffffffffff808211156119a557600080fd5b818501915085601f8301126119b957600080fd5b815160206119c96113af83611344565b82815260059290921b840181019181810190898411156119e857600080fd5b948201945b83861015611a06578551825294820194908201906119ed565b91880151919650909350505080821115611a1f57600080fd5b50611a2c858286016118be565b9150509250929050565b634e487b7160e01b600052603260045260246000fd5b634e487b7160e01b600052601160045260246000fd5b600060018201611a7457611a74611a4c565b5060010190565b60008251611a8d8184602087016115fa565b9190910192915050565b8381526001600160a01b03831660208201526060604082015260006117d3606083018461161e565b60208152600061127760208301846116bc565b80820180821115610cbe57610cbe611a4c565b600082611b0257634e487b7160e01b600052601260045260246000fd5b500690565b81810381811115610cbe57610cbe611a4c565b600060208284031215611b2c57600080fd5b815167ffffffffffffffff811115611b4357600080fd5b6115f2848285016118be56fea164736f6c6343000811000a",
  "linkReferences": {},
  "deployedLinkReferences": {}
}