{
  "_format": "hh-sol-artifact-1",
  "contractName": "Block",
  "sourceName": "contracts/Libraries/Block.sol",
  "abi": [
    {
      "inputs": [],
      "name": "baseFee",
      "outputs": [
        {
          "internalType": "uint256",
          "name": "",
          "type": "uint256"
        }
      ],
      "stateMutability": "view",
      "type": "function"
    },
    {
      "inputs": [],
      "name": "coinbase",
      "outputs": [
        {
          "internalType": "address",
          "name": "",
          "type": "address"
        }
      ],
      "stateMutability": "view",
      "type": "function"
    },
    {
      "inputs": [],
      "name": "gasLimit",
      "outputs": [
        {
          "internalType": "uint256",
          "name": "",
          "type": "uint256"
        }
      ],
      "stateMutability": "view",
      "type": "function"
    },
    {
      "inputs": [],
      "name": "number",
      "outputs": [
        {
          "internalType": "uint256",
          "name": "",
          "type": "uint256"
        }
      ],
      "stateMutability": "view",
      "type": "function"
    },
    {
      "inputs": [],
      "name": "timestamp",
      "outputs": [
        {
          "internalType": "uint256",
          "name": "",
          "type": "uint256"
        }
      ],
      "stateMutability": "view",
      "type": "function"
    }
  ],
  "bytecode": "0x608060405234801561001057600080fd5b5060a28061001f6000396000f3fe6080604052348015600f57600080fd5b5060043610605f5760003560e01c8063a6ae0aac11604a578063a6ae0aac14607e578063b80777ea14608b578063f68016b714609057600080fd5b80636ef25c3a1460645780638381f58a146079575b600080fd5b485b6040519081526020015b60405180910390f35b436066565b6040514181526020016070565b426066565b45606656fea164736f6c6343000811000a",
  "linkReferences": {},
  "deployedLinkReferences": {}
}